:02000000C22A12
:10000800FF00030E8301A5000A08A6008A017008F4
:10001800A0008B1C1F288B1000302206031D1628F9
:1000280063302106031D1C28FF30A100FF30A20009
:10003800A10A0319A20A2008F00026088A00250E42
:080048008300FF0E7F0E09008A
:10005000710DF80DF90D7408F8027508031C750F81
:10006000F902F00DF10D0F30FC00710DF80DF90DD6
:100070007408701C4128F8027508031C750FF902FA
:100080004628F80775080318750FF907F00DF10DEC
:10009000FC0B3528701852287408F80775080318E7
:0800A000750FF90700000800CC
:1000A800831203137408003A031D63287508003A85
:1000B800031D6328FF30F0007F30F100BC28831255
:1000C8000313FD01F901F8017108700403190034E4
:1000D80071087506FA00FA1BFD09FB01F51F79285E
:1000E800F409F509F40A0319F50AF11F8028F00943
:1000F800F109F00A0319F10A71087504FA00FA1BEC
:10010800952828207B18A828FD1F0034F009F1093C
:10011800F00A0319F10AF809F909F80A0319F90AA2
:100128000034F51FA428F11BA0287108F9007008F5
:10013800F800F101F0018828F101F001F00A00341B
:10014800F109F009FB0A8528F80A0319F90A740865
:100158007802031D882875087902031D8828F9018B
:10016800F801F00A0319F10AF11F88280000FF348A
:0201780008007D
:10017A0083120313BB01BC0180303C06F0008030BF
:10018A007002031DCA280A303B0203181A290230DA
:10019A00F4000030F5002108F0002208F100542094
:1001AA007808F0007908F10000307106031DDF2895
:1001BA0001307006031DE2281A2908170430F100DD
:1001CA003708F00071080319EE28F00D7010FF3E91
:1001DA00E8287008330787008230FC00DD30FD0014
:1001EA00FD0BF528FC0BF528000000000813881702
:1001FA000430F1003908F000710803190829F00DDC
:10020A007010FF3E02297008350787008230FC0013
:10021A00DD30FD00FD0B0F29FC0B0F29000000004B
:0C022A008813BB0A0319BC0AC128080095
:10023600023083120313F4000030F5002108F000A9
:100246002208F10054207808F0007908F100003007
:100256007106031D302901307006031D3329B929A3
:10026600061D42292B08AD002C08AE002908AF0058
:100276002A08B0002908B1002A08B2004E29290828
:10028600AD002A08AE002B08AF002C08B0002908E4
:10029600B1002A08B20080303206F00080307002C9
:1002A600031D572900303102031CB9290230F4001E
:1002B6000030F5002108F0002208F10054207808EB
:1002C600F0007908F10000307106031D6C29013039
:1002D6007006031D6F29B9290A30F4000030F500B5
:1002E6002D08F0002E08F10054207008B3007108A4
:1002F600B4000A30F4000030F5002D08F0002E0896
:10030600F10054207808F0007908F1007008B50073
:100316007108B6000A30F4000030F5002F08F0002E
:100326003008F10054207008B7007108B8000A3090
:10033600F4000030F5002F08F0003008F1005420DA
:100346007808F0007908F1007008B9007108BA0061
:10035600BD200130AD02031CAE030130AF02031C09
:0E036600B0030130B102031CB2034E2908009F
:1003740083120313061186128611061306128613BE
:0203840008006F
:0E0386008312031324088A0023088200080053
:10039400023083120313F4000030F5002108F0004A
:1003A4002208F10054207808F0007908F1000030A8
:1003B4007106031DDF2901307006031DE229132A8B
:1003C400061686161330A9000030AA001730AB00B9
:1003D4000030AC001B21061286150330A900003042
:1003E400AA000330AB000030AC001B2186110615B7
:1003F400861286170B30A9000030AA000F30AB001C
:100404000030AC001B21061786130330A90000300E
:10041400AA000330AB000030AC001B210613061108
:04042400CA290800D9
:1004280083120313A701A8010230F4000030F5007D
:100438002108F0002208F10054207808F00079081B
:10044800F10000307106031D2B2A00307006031DD1
:100458002E2AB52A8817BA2186150130A700003040
:10046800A8008030F000803028067002031D3E2A64
:100478002708033C031C542A270887000B30FB007D
:100488002630FC005D30FD00FD0B482AFC0B482A95
:10049800FB0B482A00000000A70A0319A80A352AFE
:1004A80088138611061686168618712A0230F400FB
:1004B8000030F5002108F0002208F10054207808E7
:1004C800F0007908F10000307106031D6D2A003034
:1004D8007006031D702AB52A582ABA2106178817EC
:1004E8000130A7000030A8008030F00080302806D6
:1004F8007002031D812A2708033C031C972A27083A
:1005080087000B30FB002630FC005D30FD00FD0B42
:100518008B2AFC0B8B2AFB0B8B2A00000000A70AF6
:100528000319A80A782A8813061386170615861C45
:10053800B42A0230F4000030F5002108F000220847
:10054800F10054207808F0007908F10000307106B5
:10055800031DB02A00307006031DB32AB52A9B2A52
:04056800182A080045
:10056C00C3218A110A128000840AA30A0319A40A5F
:08057C00F003031DB62A08007C
:10058400053083120313A100A2018B170B168316E7
:10059400011703308600870188018312081388132A
:1005A4008601870188010230F4000030F50021083B
:1005B400F0002208F10054207808F0007908F100D6
:1005C40000307106031DE82A00307006031DEC2A72
:0A05D400CA21ED2A1422D52AEE2ACE
:02400E004A2F37
:00000001FF
